{
  "_format": "hh-sol-artifact-1",
  "contractName": "RoyaltiesConfig",
  "sourceName": "contracts/royalties/RoyaltiesConfig.sol",
  "abi": [
    {
      "inputs": [],
      "stateMutability": "nonpayable",
      "type": "constructor"
    },
    {
      "anonymous": false,
      "inputs": [
        {
          "indexed": false,
          "internalType": "address",
          "name": "previousAdmin",
          "type": "address"
        },
        {
          "indexed": false,
          "internalType": "address",
          "name": "newAdmin",
          "type": "address"
        }
      ],
      "name": "AdminChanged",
      "type": "event"
    },
    {
      "anonymous": false,
      "inputs": [
        {
          "indexed": true,
          "internalType": "address",
          "name": "beacon",
          "type": "address"
        }
      ],
      "name": "BeaconUpgraded",
      "type": "event"
    },
    {
      "anonymous": false,
      "inputs": [
        {
          "indexed": false,
          "internalType": "uint8",
          "name": "version",
          "type": "uint8"
        }
      ],
      "name": "Initialized",
      "type": "event"
    },
    {
      "anonymous": false,
      "inputs": [
        {
          "indexed": true,
          "internalType": "address",
          "name": "previousOwner",
          "type": "address"
        },
        {
          "indexed": true,
          "internalType": "address",
          "name": "newOwner",
          "type": "address"
        }
      ],
      "name": "OwnershipTransferred",
      "type": "event"
    },
    {
      "anonymous": false,
      "inputs": [
        {
          "indexed": true,
          "internalType": "address",
          "name": "implementation",
          "type": "address"
        }
      ],
      "name": "Upgraded",
      "type": "event"
    },
    {
      "inputs": [],
      "name": "athlete",
      "outputs": [
        {
          "internalType": "address",
          "name": "",
          "type": "address"
        }
      ],
      "stateMutability": "view",
      "type": "function"
    },
    {
      "inputs": [],
      "name": "getRoyaltiesConfiguration",
      "outputs": [
        {
          "components": [
            {
              "internalType": "address[]",
              "name": "entities",
              "type": "address[]"
            },
            {
              "internalType": "uint256[]",
              "name": "royaltiesBPS",
              "type": "uint256[]"
            }
          ],
          "internalType": "struct IRoyaltiesConfig.RoyaltiesBPS",
          "name": "_royalties",
          "type": "tuple"
        }
      ],
      "stateMutability": "view",
      "type": "function"
    },
    {
      "inputs": [
        {
          "components": [
            {
              "internalType": "address[]",
              "name": "entities",
              "type": "address[]"
            },
            {
              "internalType": "uint256[]",
              "name": "royaltiesBPS",
              "type": "uint256[]"
            }
          ],
          "internalType": "struct IRoyaltiesConfig.RoyaltiesBPS",
          "name": "_royalties",
          "type": "tuple"
        },
        {
          "internalType": "address",
          "name": "_entity",
          "type": "address"
        }
      ],
      "name": "initialize",
      "outputs": [],
      "stateMutability": "nonpayable",
      "type": "function"
    },
    {
      "inputs": [],
      "name": "isEmpty",
      "outputs": [
        {
          "internalType": "bool",
          "name": "empty",
          "type": "bool"
        }
      ],
      "stateMutability": "view",
      "type": "function"
    },
    {
      "inputs": [],
      "name": "isValid",
      "outputs": [
        {
          "internalType": "bool",
          "name": "valid",
          "type": "bool"
        }
      ],
      "stateMutability": "view",
      "type": "function"
    },
    {
      "inputs": [],
      "name": "owner",
      "outputs": [
        {
          "internalType": "address",
          "name": "",
          "type": "address"
        }
      ],
      "stateMutability": "view",
      "type": "function"
    },
    {
      "inputs": [],
      "name": "proxiableUUID",
      "outputs": [
        {
          "internalType": "bytes32",
          "name": "",
          "type": "bytes32"
        }
      ],
      "stateMutability": "view",
      "type": "function"
    },
    {
      "inputs": [],
      "name": "renounceOwnership",
      "outputs": [],
      "stateMutability": "nonpayable",
      "type": "function"
    },
    {
      "inputs": [
        {
          "internalType": "address",
          "name": "newOwner",
          "type": "address"
        }
      ],
      "name": "transferOwnership",
      "outputs": [],
      "stateMutability": "nonpayable",
      "type": "function"
    },
    {
      "inputs": [
        {
          "internalType": "address",
          "name": "newImplementation",
          "type": "address"
        }
      ],
      "name": "upgradeTo",
      "outputs": [],
      "stateMutability": "nonpayable",
      "type": "function"
    },
    {
      "inputs": [
        {
          "internalType": "address",
          "name": "newImplementation",
          "type": "address"
        },
        {
          "internalType": "bytes",
          "name": "data",
          "type": "bytes"
        }
      ],
      "name": "upgradeToAndCall",
      "outputs": [],
      "stateMutability": "payable",
      "type": "function"
    }
  ],
  "bytecode": "0x60a0604052306080523480156200001557600080fd5b5060006200002460016200008b565b905080156200003d576000805461ff0019166101001790555b801562000084576000805461ff0019169055604051600181527f7f26b83ff96e1f2b6a682f133852f6798a09c465da95921460cefb38474024989060200160405180910390a15b50620001ac565b60008054610100900460ff161562000124578160ff166001148015620000c45750620000c2306200019d60201b620007ff1760201c565b155b6200011c5760405162461bcd60e51b815260206004820152602e60248201526000805160206200163483398151915260448201526d191e481a5b9a5d1a585b1a5e995960921b60648201526084015b60405180910390fd5b506000919050565b60005460ff808416911610620001835760405162461bcd60e51b815260206004820152602e60248201526000805160206200163483398151915260448201526d191e481a5b9a5d1a585b1a5e995960921b606482015260840162000113565b506000805460ff191660ff92909216919091179055600190565b6001600160a01b03163b151590565b608051611450620001e4600039600081816102ec01528181610335015281816103d50152818161041501526104a801526114506000f3fe60806040526004361061009c5760003560e01c8063681fe70c11610064578063681fe70c1461015c578063715018a61461017e5780638da5cb5b14610193578063bb5d40eb146101b1578063f2fde38b146101ca578063f39c380d146101ea57600080fd5b80632df58f10146100a15780633659cfe6146100cc578063412a7be0146100ee5780634f1ef2861461012657806352d1902d14610139575b600080fd5b3480156100ad57600080fd5b506100b661020a565b6040516100c39190610e07565b60405180910390f35b3480156100d857600080fd5b506100ec6100e7366004610ebc565b6102e1565b005b3480156100fa57600080fd5b5060c95461010e906001600160a01b031681565b6040516001600160a01b0390911681526020016100c3565b6100ec610134366004610f47565b6103ca565b34801561014557600080fd5b5061014e61049b565b6040519081526020016100c3565b34801561016857600080fd5b5060ca54155b60405190151581526020016100c3565b34801561018a57600080fd5b506100ec61054e565b34801561019f57600080fd5b506097546001600160a01b031661010e565b3480156101bd57600080fd5b5060cb5460ca541461016e565b3480156101d657600080fd5b506100ec6101e5366004610ebc565b610584565b3480156101f657600080fd5b506100ec61020536600461107c565b61061c565b60408051808201909152606080825260208201526040805160ca80546060602082028401810185529383018181529293919284929091849184018282801561027b57602002820191906000526020600020905b81546001600160a01b0316815260019091019060200180831161025d575b50505050508152602001600182018054806020026020016040519081016040528092919081815260200182805480156102d357602002820191906000526020600020905b8154815260200190600101908083116102bf575b505050505081525050905090565b306001600160a01b037f00000000000000000000000000000000000000000000000000000000000000001614156103335760405162461bcd60e51b815260040161032a9061117a565b60405180910390fd5b7f00000000000000000000000000000000000000000000000000000000000000006001600160a01b031661037c6000805160206113d4833981519152546001600160a01b031690565b6001600160a01b0316146103a25760405162461bcd60e51b815260040161032a906111c6565b6103ab8161080e565b604080516000808252602082019092526103c791839190610838565b50565b306001600160a01b037f00000000000000000000000000000000000000000000000000000000000000001614156104135760405162461bcd60e51b815260040161032a9061117a565b7f00000000000000000000000000000000000000000000000000000000000000006001600160a01b031661045c6000805160206113d4833981519152546001600160a01b031690565b6001600160a01b0316146104825760405162461bcd60e51b815260040161032a906111c6565b61048b8261080e565b61049782826001610838565b5050565b6000306001600160a01b037f0000000000000000000000000000000000000000000000000000000000000000161461053b5760405162461bcd60e51b815260206004820152603860248201527f555550535570677261646561626c653a206d757374206e6f742062652063616c60448201527f6c6564207468726f7567682064656c656761746563616c6c0000000000000000606482015260840161032a565b506000805160206113d483398151915290565b6097546001600160a01b031633146105785760405162461bcd60e51b815260040161032a90611212565b61058260006109b2565b565b6097546001600160a01b031633146105ae5760405162461bcd60e51b815260040161032a90611212565b6001600160a01b0381166106135760405162461bcd60e51b815260206004820152602660248201527f4f776e61626c653a206e6577206f776e657220697320746865207a65726f206160448201526564647265737360d01b606482015260840161032a565b6103c7816109b2565b60006106286001610a04565b90508015610640576000805461ff0019166101001790555b610648610a91565b610650610ac0565b825151158015906106675750602083015151835151145b6106ab5760405162461bcd60e51b815260206004820152601560248201527434b73b30b634b21031b7b73334b3bab930ba34b7b760591b604482015260640161032a565b60c980546001600160a01b0319166001600160a01b03841617905582518051849160ca916106e0918391602090910190610d52565b5060208281015180516106f99260018501920190610db7565b509050506000805b846020015151811015610749578460200151818151811061072457610724611247565b6020026020010151826107379190611273565b91506107428161128b565b9050610701565b5080612710146107b35760405162461bcd60e51b815260206004820152602f60248201527f526f79616c7469657320636f6e666967206d7573742061646420757020746f2060448201526e313030303020283130302e3030252960881b606482015260840161032a565b5080156107fa576000805461ff0019169055604051600181527f7f26b83ff96e1f2b6a682f133852f6798a09c465da95921460cefb38474024989060200160405180910390a15b505050565b6001600160a01b03163b151590565b6097546001600160a01b031633146103c75760405162461bcd60e51b815260040161032a90611212565b7f4910fdfa16fed3260ed0e7147f7cc6da11a60208b5b9406d12a635614ffd91435460ff161561086b576107fa83610ae7565b826001600160a01b03166352d1902d6040518163ffffffff1660e01b815260040160206040518083038186803b1580156108a457600080fd5b505afa9250505080156108d4575060408051601f3d908101601f191682019092526108d1918101906112a6565b60015b6109375760405162461bcd60e51b815260206004820152602e60248201527f45524331393637557067726164653a206e657720696d706c656d656e7461746960448201526d6f6e206973206e6f74205555505360901b606482015260840161032a565b6000805160206113d483398151915281146109a65760405162461bcd60e51b815260206004820152602960248201527f45524331393637557067726164653a20756e737570706f727465642070726f786044820152681a58589b195555525160ba1b606482015260840161032a565b506107fa838383610b83565b609780546001600160a01b038381166001600160a01b0319831681179093556040519116919082907f8be0079c531659141344cd1fd0a4f28419497f9722a3daafe3b4186f6b6457e090600090a35050565b60008054610100900460ff1615610a4b578160ff166001148015610a275750303b155b610a435760405162461bcd60e51b815260040161032a906112bf565b506000919050565b60005460ff808416911610610a725760405162461bcd60e51b815260040161032a906112bf565b506000805460ff191660ff92909216919091179055600190565b919050565b600054610100900460ff16610ab85760405162461bcd60e51b815260040161032a9061130d565b610582610bae565b600054610100900460ff166105825760405162461bcd60e51b815260040161032a9061130d565b6001600160a01b0381163b610b545760405162461bcd60e51b815260206004820152602d60248201527f455243313936373a206e657720696d706c656d656e746174696f6e206973206e60448201526c1bdd08184818dbdb9d1c9858dd609a1b606482015260840161032a565b6000805160206113d483398151915280546001600160a01b0319166001600160a01b0392909216919091179055565b610b8c83610bde565b600082511180610b995750805b156107fa57610ba88383610c1e565b50505050565b600054610100900460ff16610bd55760405162461bcd60e51b815260040161032a9061130d565b610582336109b2565b610be781610ae7565b6040516001600160a01b038216907fbc7cd75a20ee27fd9adebab32041f755214dbc6bffa90cc0225b39da2e5c2d3b90600090a250565b60606001600160a01b0383163b610c865760405162461bcd60e51b815260206004820152602660248201527f416464726573733a2064656c65676174652063616c6c20746f206e6f6e2d636f6044820152651b9d1c9858dd60d21b606482015260840161032a565b600080846001600160a01b031684604051610ca19190611384565b600060405180830381855af49150503d8060008114610cdc576040519150601f19603f3d011682016040523d82523d6000602084013e610ce1565b606091505b5091509150610d0982826040518060600160405280602781526020016113f460279139610d12565b95945050505050565b60608315610d21575081610d4b565b825115610d315782518084602001fd5b8160405162461bcd60e51b815260040161032a91906113a0565b9392505050565b828054828255906000526020600020908101928215610da7579160200282015b82811115610da757825182546001600160a01b0319166001600160a01b03909116178255602090920191600190910190610d72565b50610db3929150610df2565b5090565b828054828255906000526020600020908101928215610da7579160200282015b82811115610da7578251825591602001919060010190610dd7565b5b80821115610db35760008155600101610df3565b6020808252825160408383015280516060840181905260009291820190839060808601905b80831015610e555783516001600160a01b03168252928401926001929092019190840190610e2c565b5086840151868203601f190160408801528051808352908501935090840191506000905b80821015610e995783518352928401929184019160019190910190610e79565b50909695505050505050565b80356001600160a01b0381168114610a8c57600080fd5b600060208284031215610ece57600080fd5b610d4b82610ea5565b634e487b7160e01b600052604160045260246000fd5b6040805190810167ffffffffffffffff81118282101715610f1057610f10610ed7565b60405290565b604051601f8201601f1916810167ffffffffffffffff81118282101715610f3f57610f3f610ed7565b604052919050565b60008060408385031215610f5a57600080fd5b610f6383610ea5565b915060208084013567ffffffffffffffff80821115610f8157600080fd5b818601915086601f830112610f9557600080fd5b813581811115610fa757610fa7610ed7565b610fb9601f8201601f19168501610f16565b91508082528784828501011115610fcf57600080fd5b80848401858401376000848284010152508093505050509250929050565b600067ffffffffffffffff82111561100757611007610ed7565b5060051b60200190565b600082601f83011261102257600080fd5b8135602061103761103283610fed565b610f16565b82815260059290921b8401810191818101908684111561105657600080fd5b8286015b84811015611071578035835291830191830161105a565b509695505050505050565b6000806040838503121561108f57600080fd5b823567ffffffffffffffff808211156110a757600080fd5b90840190604082870312156110bb57600080fd5b6110c3610eed565b8235828111156110d257600080fd5b8301601f810188136110e357600080fd5b803560206110f361103283610fed565b82815260059290921b8301810191818101908b84111561111257600080fd5b938201935b838510156111375761112885610ea5565b82529382019390820190611117565b8552508581013592508483111561114d57600080fd5b6111598a848801611011565b8185015283975061116b818a01610ea5565b96505050505050509250929050565b6020808252602c908201527f46756e6374696f6e206d7573742062652063616c6c6564207468726f7567682060408201526b19195b1959d85d1958d85b1b60a21b606082015260800190565b6020808252602c908201527f46756e6374696f6e206d7573742062652063616c6c6564207468726f7567682060408201526b6163746976652070726f787960a01b606082015260800190565b6020808252818101527f4f776e61626c653a2063616c6c6572206973206e6f7420746865206f776e6572604082015260600190565b634e487b7160e01b600052603260045260246000fd5b634e487b7160e01b600052601160045260246000fd5b600082198211156112865761128661125d565b500190565b600060001982141561129f5761129f61125d565b5060010190565b6000602082840312156112b857600080fd5b5051919050565b6020808252602e908201527f496e697469616c697a61626c653a20636f6e747261637420697320616c72656160408201526d191e481a5b9a5d1a585b1a5e995960921b606082015260800190565b6020808252602b908201527f496e697469616c697a61626c653a20636f6e7472616374206973206e6f74206960408201526a6e697469616c697a696e6760a81b606082015260800190565b60005b8381101561137357818101518382015260200161135b565b83811115610ba85750506000910152565b60008251611396818460208701611358565b9190910192915050565b60208152600082518060208401526113bf816040850160208701611358565b601f01601f1916919091016040019291505056fe360894a13ba1a3210667c828492db98dca3e2076cc3735a920a3ca505d382bbc416464726573733a206c6f772d6c6576656c2064656c65676174652063616c6c206661696c6564a26469706673582212204a667b63ec25e9731daac5aebd6c03c587b36e3453baaf25a7b631327de1ba2064736f6c63430008090033496e697469616c697a61626c653a20636f6e747261637420697320616c726561",
  "linkReferences": {},
  "deployedLinkReferences": {}
}