{
  "_format": "hh-sol-artifact-1",
  "contractName": "Token1155",
  "sourceName": "contracts/tokens/Token1155.sol",
  "abi": [
    {
      "inputs": [],
      "stateMutability": "nonpayable",
      "type": "constructor"
    },
    {
      "anonymous": false,
      "inputs": [
        {
          "indexed": false,
          "internalType": "address",
          "name": "previousAdmin",
          "type": "address"
        },
        {
          "indexed": false,
          "internalType": "address",
          "name": "newAdmin",
          "type": "address"
        }
      ],
      "name": "AdminChanged",
      "type": "event"
    },
    {
      "anonymous": false,
      "inputs": [
        {
          "indexed": true,
          "internalType": "address",
          "name": "account",
          "type": "address"
        },
        {
          "indexed": true,
          "internalType": "address",
          "name": "operator",
          "type": "address"
        },
        {
          "indexed": false,
          "internalType": "bool",
          "name": "approved",
          "type": "bool"
        }
      ],
      "name": "ApprovalForAll",
      "type": "event"
    },
    {
      "anonymous": false,
      "inputs": [
        {
          "indexed": true,
          "internalType": "address",
          "name": "beacon",
          "type": "address"
        }
      ],
      "name": "BeaconUpgraded",
      "type": "event"
    },
    {
      "anonymous": false,
      "inputs": [
        {
          "indexed": false,
          "internalType": "uint8",
          "name": "version",
          "type": "uint8"
        }
      ],
      "name": "Initialized",
      "type": "event"
    },
    {
      "anonymous": false,
      "inputs": [
        {
          "indexed": true,
          "internalType": "address",
          "name": "previousOwner",
          "type": "address"
        },
        {
          "indexed": true,
          "internalType": "address",
          "name": "newOwner",
          "type": "address"
        }
      ],
      "name": "OwnershipTransferred",
      "type": "event"
    },
    {
      "anonymous": false,
      "inputs": [
        {
          "indexed": false,
          "internalType": "address",
          "name": "wallet",
          "type": "address"
        },
        {
          "indexed": false,
          "internalType": "uint256",
          "name": "token",
          "type": "uint256"
        },
        {
          "indexed": false,
          "internalType": "uint256",
          "name": "total",
          "type": "uint256"
        },
        {
          "indexed": false,
          "internalType": "bool",
          "name": "reclaimed",
          "type": "bool"
        }
      ],
      "name": "TokenPendingCleared",
      "type": "event"
    },
    {
      "anonymous": false,
      "inputs": [
        {
          "indexed": false,
          "internalType": "address",
          "name": "wallet",
          "type": "address"
        },
        {
          "indexed": false,
          "internalType": "uint256",
          "name": "tokenId",
          "type": "uint256"
        },
        {
          "indexed": false,
          "internalType": "uint256",
          "name": "balance",
          "type": "uint256"
        },
        {
          "indexed": false,
          "internalType": "bool",
          "name": "pending",
          "type": "bool"
        }
      ],
      "name": "TokenPurchased1155",
      "type": "event"
    },
    {
      "anonymous": false,
      "inputs": [
        {
          "indexed": true,
          "internalType": "address",
          "name": "operator",
          "type": "address"
        },
        {
          "indexed": true,
          "internalType": "address",
          "name": "from",
          "type": "address"
        },
        {
          "indexed": true,
          "internalType": "address",
          "name": "to",
          "type": "address"
        },
        {
          "indexed": false,
          "internalType": "uint256[]",
          "name": "ids",
          "type": "uint256[]"
        },
        {
          "indexed": false,
          "internalType": "uint256[]",
          "name": "values",
          "type": "uint256[]"
        }
      ],
      "name": "TransferBatch",
      "type": "event"
    },
    {
      "anonymous": false,
      "inputs": [
        {
          "indexed": true,
          "internalType": "address",
          "name": "operator",
          "type": "address"
        },
        {
          "indexed": true,
          "internalType": "address",
          "name": "from",
          "type": "address"
        },
        {
          "indexed": true,
          "internalType": "address",
          "name": "to",
          "type": "address"
        },
        {
          "indexed": false,
          "internalType": "uint256",
          "name": "id",
          "type": "uint256"
        },
        {
          "indexed": false,
          "internalType": "uint256",
          "name": "value",
          "type": "uint256"
        }
      ],
      "name": "TransferSingle",
      "type": "event"
    },
    {
      "anonymous": false,
      "inputs": [
        {
          "indexed": false,
          "internalType": "string",
          "name": "value",
          "type": "string"
        },
        {
          "indexed": true,
          "internalType": "uint256",
          "name": "id",
          "type": "uint256"
        }
      ],
      "name": "URI",
      "type": "event"
    },
    {
      "anonymous": false,
      "inputs": [
        {
          "indexed": true,
          "internalType": "address",
          "name": "implementation",
          "type": "address"
        }
      ],
      "name": "Upgraded",
      "type": "event"
    },
    {
      "inputs": [
        {
          "internalType": "address",
          "name": "account",
          "type": "address"
        },
        {
          "internalType": "uint256",
          "name": "id",
          "type": "uint256"
        }
      ],
      "name": "balanceOf",
      "outputs": [
        {
          "internalType": "uint256",
          "name": "",
          "type": "uint256"
        }
      ],
      "stateMutability": "view",
      "type": "function"
    },
    {
      "inputs": [
        {
          "internalType": "address[]",
          "name": "accounts",
          "type": "address[]"
        },
        {
          "internalType": "uint256[]",
          "name": "ids",
          "type": "uint256[]"
        }
      ],
      "name": "balanceOfBatch",
      "outputs": [
        {
          "internalType": "uint256[]",
          "name": "",
          "type": "uint256[]"
        }
      ],
      "stateMutability": "view",
      "type": "function"
    },
    {
      "inputs": [
        {
          "internalType": "uint256",
          "name": "tokenId",
          "type": "uint256"
        }
      ],
      "name": "getCostPerToken",
      "outputs": [
        {
          "internalType": "uint256",
          "name": "",
          "type": "uint256"
        }
      ],
      "stateMutability": "view",
      "type": "function"
    },
    {
      "inputs": [
        {
          "internalType": "uint256",
          "name": "tokenId",
          "type": "uint256"
        }
      ],
      "name": "getMetadataFor",
      "outputs": [
        {
          "components": [
            {
              "internalType": "uint256",
              "name": "totalTokens",
              "type": "uint256"
            },
            {
              "internalType": "uint256",
              "name": "pricePerToken",
              "type": "uint256"
            },
            {
              "internalType": "contract IRoyaltiesConfig",
              "name": "royaltiesConfig",
              "type": "address"
            }
          ],
          "internalType": "struct Token1155.Metadata",
          "name": "data",
          "type": "tuple"
        }
      ],
      "stateMutability": "view",
      "type": "function"
    },
    {
      "inputs": [
        {
          "internalType": "contract IRoyalties",
          "name": "_royalties",
          "type": "address"
        },
        {
          "internalType": "address",
          "name": "_newOwner",
          "type": "address"
        }
      ],
      "name": "initialize",
      "outputs": [],
      "stateMutability": "nonpayable",
      "type": "function"
    },
    {
      "inputs": [
        {
          "internalType": "address",
          "name": "account",
          "type": "address"
        },
        {
          "internalType": "address",
          "name": "operator",
          "type": "address"
        }
      ],
      "name": "isApprovedForAll",
      "outputs": [
        {
          "internalType": "bool",
          "name": "",
          "type": "bool"
        }
      ],
      "stateMutability": "view",
      "type": "function"
    },
    {
      "inputs": [
        {
          "internalType": "address",
          "name": "_to",
          "type": "address"
        },
        {
          "internalType": "uint256",
          "name": "_quantity",
          "type": "uint256"
        },
        {
          "internalType": "uint256",
          "name": "_pricePerToken",
          "type": "uint256"
        },
        {
          "internalType": "string",
          "name": "_tokenURI",
          "type": "string"
        },
        {
          "internalType": "contract IRoyaltiesConfig",
          "name": "_royaltiesConfig",
          "type": "address"
        }
      ],
      "name": "mintToken",
      "outputs": [
        {
          "internalType": "uint256",
          "name": "tokenId",
          "type": "uint256"
        }
      ],
      "stateMutability": "nonpayable",
      "type": "function"
    },
    {
      "inputs": [
        {
          "internalType": "address",
          "name": "operator",
          "type": "address"
        },
        {
          "internalType": "address",
          "name": "from",
          "type": "address"
        },
        {
          "internalType": "uint256[]",
          "name": "ids",
          "type": "uint256[]"
        },
        {
          "internalType": "uint256[]",
          "name": "values",
          "type": "uint256[]"
        },
        {
          "internalType": "bytes",
          "name": "data",
          "type": "bytes"
        }
      ],
      "name": "onERC1155BatchReceived",
      "outputs": [
        {
          "internalType": "bytes4",
          "name": "",
          "type": "bytes4"
        }
      ],
      "stateMutability": "pure",
      "type": "function"
    },
    {
      "inputs": [
        {
          "internalType": "address",
          "name": "operator",
          "type": "address"
        },
        {
          "internalType": "address",
          "name": "from",
          "type": "address"
        },
        {
          "internalType": "uint256",
          "name": "id",
          "type": "uint256"
        },
        {
          "internalType": "uint256",
          "name": "value",
          "type": "uint256"
        },
        {
          "internalType": "bytes",
          "name": "data",
          "type": "bytes"
        }
      ],
      "name": "onERC1155Received",
      "outputs": [
        {
          "internalType": "bytes4",
          "name": "",
          "type": "bytes4"
        }
      ],
      "stateMutability": "pure",
      "type": "function"
    },
    {
      "inputs": [],
      "name": "owner",
      "outputs": [
        {
          "internalType": "address",
          "name": "",
          "type": "address"
        }
      ],
      "stateMutability": "view",
      "type": "function"
    },
    {
      "inputs": [
        {
          "internalType": "address",
          "name": "",
          "type": "address"
        },
        {
          "internalType": "uint256",
          "name": "",
          "type": "uint256"
        }
      ],
      "name": "pendingPayments",
      "outputs": [
        {
          "internalType": "uint256",
          "name": "",
          "type": "uint256"
        }
      ],
      "stateMutability": "view",
      "type": "function"
    },
    {
      "inputs": [],
      "name": "proxiableUUID",
      "outputs": [
        {
          "internalType": "bytes32",
          "name": "",
          "type": "bytes32"
        }
      ],
      "stateMutability": "view",
      "type": "function"
    },
    {
      "inputs": [
        {
          "internalType": "address",
          "name": "_to",
          "type": "address"
        },
        {
          "internalType": "uint256",
          "name": "_token",
          "type": "uint256"
        },
        {
          "internalType": "uint256",
          "name": "_quantity",
          "type": "uint256"
        },
        {
          "internalType": "bool",
          "name": "_pendingPayment",
          "type": "bool"
        }
      ],
      "name": "purchaseToken",
      "outputs": [],
      "stateMutability": "nonpayable",
      "type": "function"
    },
    {
      "inputs": [],
      "name": "renounceOwnership",
      "outputs": [],
      "stateMutability": "nonpayable",
      "type": "function"
    },
    {
      "inputs": [],
      "name": "royalties",
      "outputs": [
        {
          "internalType": "contract IRoyalties",
          "name": "",
          "type": "address"
        }
      ],
      "stateMutability": "view",
      "type": "function"
    },
    {
      "inputs": [
        {
          "internalType": "uint256",
          "name": "tokenId",
          "type": "uint256"
        },
        {
          "internalType": "uint256",
          "name": "salePrice",
          "type": "uint256"
        }
      ],
      "name": "royaltyInfo",
      "outputs": [
        {
          "internalType": "address",
          "name": "receiver",
          "type": "address"
        },
        {
          "internalType": "uint256",
          "name": "royaltyAmount",
          "type": "uint256"
        }
      ],
      "stateMutability": "view",
      "type": "function"
    },
    {
      "inputs": [
        {
          "internalType": "address",
          "name": "from",
          "type": "address"
        },
        {
          "internalType": "address",
          "name": "to",
          "type": "address"
        },
        {
          "internalType": "uint256[]",
          "name": "ids",
          "type": "uint256[]"
        },
        {
          "internalType": "uint256[]",
          "name": "amounts",
          "type": "uint256[]"
        },
        {
          "internalType": "bytes",
          "name": "data",
          "type": "bytes"
        }
      ],
      "name": "safeBatchTransferFrom",
      "outputs": [],
      "stateMutability": "nonpayable",
      "type": "function"
    },
    {
      "inputs": [
        {
          "internalType": "address",
          "name": "from",
          "type": "address"
        },
        {
          "internalType": "address",
          "name": "to",
          "type": "address"
        },
        {
          "internalType": "uint256",
          "name": "id",
          "type": "uint256"
        },
        {
          "internalType": "uint256",
          "name": "amount",
          "type": "uint256"
        },
        {
          "internalType": "bytes",
          "name": "data",
          "type": "bytes"
        }
      ],
      "name": "safeTransferFrom",
      "outputs": [],
      "stateMutability": "nonpayable",
      "type": "function"
    },
    {
      "inputs": [
        {
          "internalType": "address",
          "name": "operator",
          "type": "address"
        },
        {
          "internalType": "bool",
          "name": "approved",
          "type": "bool"
        }
      ],
      "name": "setApprovalForAll",
      "outputs": [],
      "stateMutability": "nonpayable",
      "type": "function"
    },
    {
      "inputs": [
        {
          "internalType": "bytes4",
          "name": "interfaceId",
          "type": "bytes4"
        }
      ],
      "name": "supportsInterface",
      "outputs": [
        {
          "internalType": "bool",
          "name": "",
          "type": "bool"
        }
      ],
      "stateMutability": "view",
      "type": "function"
    },
    {
      "inputs": [
        {
          "internalType": "address",
          "name": "newOwner",
          "type": "address"
        }
      ],
      "name": "transferOwnership",
      "outputs": [],
      "stateMutability": "nonpayable",
      "type": "function"
    },
    {
      "inputs": [
        {
          "internalType": "address",
          "name": "ownerAddress",
          "type": "address"
        },
        {
          "internalType": "uint256",
          "name": "token",
          "type": "uint256"
        },
        {
          "internalType": "uint256",
          "name": "total",
          "type": "uint256"
        },
        {
          "internalType": "bool",
          "name": "reclaim",
          "type": "bool"
        }
      ],
      "name": "transferPendingToken",
      "outputs": [],
      "stateMutability": "nonpayable",
      "type": "function"
    },
    {
      "inputs": [
        {
          "internalType": "address",
          "name": "newImplementation",
          "type": "address"
        }
      ],
      "name": "upgradeTo",
      "outputs": [],
      "stateMutability": "nonpayable",
      "type": "function"
    },
    {
      "inputs": [
        {
          "internalType": "address",
          "name": "newImplementation",
          "type": "address"
        },
        {
          "internalType": "bytes",
          "name": "data",
          "type": "bytes"
        }
      ],
      "name": "upgradeToAndCall",
      "outputs": [],
      "stateMutability": "payable",
      "type": "function"
    },
    {
      "inputs": [
        {
          "internalType": "uint256",
          "name": "_tokenId",
          "type": "uint256"
        }
      ],
      "name": "uri",
      "outputs": [
        {
          "internalType": "string",
          "name": "",
          "type": "string"
        }
      ],
      "stateMutability": "view",
      "type": "function"
    }
  ],
  "bytecode": "0x60a0604052306080523480156200001557600080fd5b5060006200002460016200008b565b905080156200003d576000805461ff0019166101001790555b801562000084576000805461ff0019169055604051600181527f7f26b83ff96e1f2b6a682f133852f6798a09c465da95921460cefb38474024989060200160405180910390a15b50620001ac565b60008054610100900460ff161562000124578160ff166001148015620000c45750620000c2306200019d60201b620014631760201c565b155b6200011c5760405162461bcd60e51b815260206004820152602e6024820152600080516020620033b083398151915260448201526d191e481a5b9a5d1a585b1a5e995960921b60648201526084015b60405180910390fd5b506000919050565b60005460ff808416911610620001835760405162461bcd60e51b815260206004820152602e6024820152600080516020620033b083398151915260448201526d191e481a5b9a5d1a585b1a5e995960921b606482015260840162000113565b506000805460ff191660ff92909216919091179055600190565b6001600160a01b03163b151590565b6080516131cc620001e4600039600081816107f70152818161083701528181610d5801528181610d980152610e2b01526131cc6000f3fe6080604052600436106101655760003560e01c806363f43420116100d1578063bc197c811161008a578063f053dc5c11610064578063f053dc5c146104fd578063f23a6e611461051e578063f242432a1461054b578063f2fde38b1461056b57600080fd5b8063bc197c811461043b578063db5f6e0b14610483578063e985e9c5146104b457600080fd5b806363f4342014610349578063715018a6146103695780637bda1cdd1461037e5780638098746c1461039e5780638da5cb5b146103e9578063a22cb4651461041b57600080fd5b80634815d31c116101235780634815d31c1461027b578063485cc955146102b45780634dd968f2146102d45780634e1273f4146102f45780634f1ef2861461032157806352d1902d1461033457600080fd5b8062fdd58e1461016a57806301ffc9a71461019d5780630e89341c146101cd5780632a55205a146101fa5780632eb2c2d6146102395780633659cfe61461025b575b600080fd5b34801561017657600080fd5b5061018a610185366004612454565b61058b565b6040519081526020015b60405180910390f35b3480156101a957600080fd5b506101bd6101b8366004612496565b6105d2565b6040519015158152602001610194565b3480156101d957600080fd5b506101ed6101e83660046124b3565b610624565b6040516101949190612524565b34801561020657600080fd5b5061021a610215366004612537565b61070c565b604080516001600160a01b039093168352602083019190915201610194565b34801561024557600080fd5b506102596102543660046126ac565b610755565b005b34801561026757600080fd5b50610259610276366004612759565b6107ec565b34801561028757600080fd5b5061018a610296366004612454565b61012e60209081526000928352604080842090915290825290205481565b3480156102c057600080fd5b506102596102cf366004612776565b6108cc565b3480156102e057600080fd5b506102596102ef3660046127bd565b6109d4565b34801561030057600080fd5b5061031461030f366004612807565b610c24565b604051610194919061290e565b61025961032f366004612921565b610d4d565b34801561034057600080fd5b5061018a610e1e565b34801561035557600080fd5b5061018a610364366004612966565b610ed2565b34801561037557600080fd5b506102596110fb565b34801561038a57600080fd5b506102596103993660046127bd565b611127565b3480156103aa57600080fd5b506103be6103b93660046124b3565b611287565b604080518251815260208084015190820152918101516001600160a01b031690820152606001610194565b3480156103f557600080fd5b506097546001600160a01b03165b6040516001600160a01b039091168152602001610194565b34801561042757600080fd5b506102596104363660046129f1565b611339565b34801561044757600080fd5b5061046a610456366004612aa4565b63bc197c8160e01b98975050505050505050565b6040516001600160e01b03199091168152602001610194565b34801561048f57600080fd5b5061018a61049e3660046124b3565b6000908152610130602052604090206001015490565b3480156104c057600080fd5b506101bd6104cf366004612776565b6001600160a01b03918216600090815260fc6020908152604080832093909416825291909152205460ff1690565b34801561050957600080fd5b5061012d54610403906001600160a01b031681565b34801561052a57600080fd5b5061046a610539366004612b62565b63f23a6e6160e01b9695505050505050565b34801561055757600080fd5b50610259610566366004612bdd565b611344565b34801561057757600080fd5b50610259610586366004612759565b6113cb565b6000806105988484611472565b6001600160a01b038516600090815261012e602090815260408083208784529091529020549091506105ca9082612c5b565b949350505050565b60006001600160e01b03198216636cdb3d1360e11b148061060357506001600160e01b031982166303a24d0760e21b145b8061061e57506301ffc9a760e01b6001600160e01b03198316145b92915050565b606081610131541161066d5760405162461bcd60e51b815260206004820152600d60248201526c24b73b30b634b2103a37b5b2b760991b60448201526064015b60405180910390fd5b600082815261012f60205260409020805461068790612c73565b80601f01602080910402602001604051908101604052809291908181526020018280546106b390612c73565b80156107005780601f106106d557610100808354040283529160200191610700565b820191906000526020600020905b8154815290600101906020018083116106e357829003601f168201915b50505050509050919050565b6000806107216097546001600160a01b031690565b9150600a8310156107345750600061074e565b606461074184600a612cae565b61074b9190612ccd565b90505b9250929050565b6001600160a01b038516331480610771575061077185336104cf565b6107d85760405162461bcd60e51b815260206004820152603260248201527f455243313135353a207472616e736665722063616c6c6572206973206e6f74206044820152711bdddb995c881b9bdc88185c1c1c9bdd995960721b6064820152608401610664565b6107e58585858585611506565b5050505050565b306001600160a01b037f00000000000000000000000000000000000000000000000000000000000000001614156108355760405162461bcd60e51b815260040161066490612cef565b7f00000000000000000000000000000000000000000000000000000000000000006001600160a01b031661087e600080516020613150833981519152546001600160a01b031690565b6001600160a01b0316146108a45760405162461bcd60e51b815260040161066490612d3b565b6108ad816116e6565b604080516000808252602082019092526108c991839190611710565b50565b60006108d8600161188a565b905080156108f0576000805461ff0019166101001790555b600161013160008282546109049190612c5b565b909155506109129050611912565b6109506040518060400160405280601f81526020017f68747470733a2f2f7777772e7361746f726973706f7274732e636f6d2e617500815250611941565b610958611971565b610961826113cb565b61012d80546001600160a01b0319166001600160a01b03851617905561098930836001611998565b80156109cf576000805461ff0019169055604051600181527f7f26b83ff96e1f2b6a682f133852f6798a09c465da95921460cefb38474024989060200160405180910390a15b505050565b6097546001600160a01b031633146109fe5760405162461bcd60e51b815260040161066490612d87565b600082118015610a28575081610a25610a1f6097546001600160a01b031690565b8561058b565b10155b610a6c5760405162461bcd60e51b815260206004820152601560248201527424b73b30b634b21031b7b73334b3bab930ba34b7b760591b6044820152606401610664565b8015610ade57610a9f610a876097546001600160a01b031690565b30858560405180602001604052806000815250611344565b6001600160a01b038416600090815261012e6020908152604080832086845290915281208054849290610ad3908490612c5b565b90915550610bcc9050565b610b0b610af36097546001600160a01b031690565b85858560405180602001604052806000815250611344565b61012d54600084815261013060205260409020600281015460019091015473__$06eb37f3f4181eddff90c3bfb218879e8b$__9263a2f8b71b926001600160a01b03918216929116908790610b61908890612cae565b6040516001600160e01b031960e087901b1681526001600160a01b0394851660048201529390921660248401526044830152606482015260840160006040518083038186803b158015610bb357600080fd5b505af4158015610bc7573d6000803e3d6000fd5b505050505b604080516001600160a01b03861681526020810185905290810183905281151560608201527f34d11aac23c17bad306118f234c4ee5752208e5dbfd2f1dbcad3378367ef37179060800160405180910390a150505050565b60608151835114610c895760405162461bcd60e51b815260206004820152602960248201527f455243313135353a206163636f756e747320616e6420696473206c656e677468604482015268040dad2e6dac2e8c6d60bb1b6064820152608401610664565b600083516001600160401b03811115610ca457610ca4612559565b604051908082528060200260200182016040528015610ccd578160200160208202803683370190505b50905060005b8451811015610d4557610d18858281518110610cf157610cf1612dbc565b6020026020010151858381518110610d0b57610d0b612dbc565b602002602001015161058b565b828281518110610d2a57610d2a612dbc565b6020908102919091010152610d3e81612dd2565b9050610cd3565b509392505050565b306001600160a01b037f0000000000000000000000000000000000000000000000000000000000000000161415610d965760405162461bcd60e51b815260040161066490612cef565b7f00000000000000000000000000000000000000000000000000000000000000006001600160a01b0316610ddf600080516020613150833981519152546001600160a01b031690565b6001600160a01b031614610e055760405162461bcd60e51b815260040161066490612d3b565b610e0e826116e6565b610e1a82826001611710565b5050565b6000306001600160a01b037f00000000000000000000000000000000000000000000000000000000000000001614610ebe5760405162461bcd60e51b815260206004820152603860248201527f555550535570677261646561626c653a206d757374206e6f742062652063616c60448201527f6c6564207468726f7567682064656c656761746563616c6c00000000000000006064820152608401610664565b506000805160206131508339815191525b90565b6097546000906001600160a01b03163314610eff5760405162461bcd60e51b815260040161066490612d87565b600085118015610f0f5750600084115b8015610f1c575060008351115b8015610f965750816001600160a01b031663bb5d40eb6040518163ffffffff1660e01b8152600401602060405180830381600087803b158015610f5e57600080fd5b505af1158015610f72573d6000803e3d6000fd5b505050506040513d601f19601f82011682018060405250810190610f969190612ded565b80156110125750816001600160a01b031663681fe70c6040518163ffffffff1660e01b8152600401602060405180830381600087803b158015610fd857600080fd5b505af1158015610fec573d6000803e3d6000fd5b505050506040513d601f19601f820116820180604052508101906110109190612ded565b155b6110565760405162461bcd60e51b815260206004820152601560248201527424b73b30b634b21031b7b73334b3bab930ba34b7b760591b6044820152606401610664565b61013154905061107786828760405180602001604052806000815250611a79565b6110818184611b8f565b6040805160608101825286815260208082018781526001600160a01b03868116848601908152600087815261013090945294832093518455905160018401559251600290920180546001600160a01b03191692909316919091179091556101318054916110ed83612dd2565b919050555095945050505050565b6097546001600160a01b031633146111255760405162461bcd60e51b815260040161066490612d87565b565b6097546001600160a01b031633146111515760405162461bcd60e51b815260040161066490612d87565b6001600160a01b038416600090815261012e6020908152604080832086845290915290205482118015906111855750600082115b6111c25760405162461bcd60e51b815260206004820152600e60248201526d496e76616c696420636f6e66696760901b6044820152606401610664565b80156111ea576111e56111dd6097546001600160a01b031690565b858585611baf565b6111f6565b6111f684858585611baf565b604080516001600160a01b03861681526020810185905290810183905281151560608201527fa634be3249c22abb93400be1d5389724794784d096877c3d53294b639044e8cb9060800160405180910390a16001600160a01b038416600090815261012e602090815260408083208684529091528120805484929061127c908490612e0a565b909155505050505050565b6112b46040518060600160405280600081526020016000815260200160006001600160a01b031681525090565b8161013154116112f65760405162461bcd60e51b815260206004820152600d60248201526c24b73b30b634b2103a37b5b2b760991b6044820152606401610664565b5060009081526101306020908152604091829020825160608101845281548152600182015492810192909252600201546001600160a01b03169181019190915290565b610e1a338383611998565b6001600160a01b038516331480611360575061136085336104cf565b6113be5760405162461bcd60e51b815260206004820152602960248201527f455243313135353a2063616c6c6572206973206e6f74206f776e6572206e6f7260448201526808185c1c1c9bdd995960ba1b6064820152608401610664565b6107e58585858585611cfe565b6097546001600160a01b031633146113f55760405162461bcd60e51b815260040161066490612d87565b6001600160a01b03811661145a5760405162461bcd60e51b815260206004820152602660248201527f4f776e61626c653a206e6577206f776e657220697320746865207a65726f206160448201526564647265737360d01b6064820152608401610664565b6108c981611e2c565b6001600160a01b03163b151590565b60006001600160a01b0383166114de5760405162461bcd60e51b815260206004820152602b60248201527f455243313135353a2062616c616e636520717565727920666f7220746865207a60448201526a65726f206164647265737360a81b6064820152608401610664565b50600090815260fb602090815260408083206001600160a01b03949094168352929052205490565b81518351146115685760405162461bcd60e51b815260206004820152602860248201527f455243313135353a2069647320616e6420616d6f756e7473206c656e677468206044820152670dad2e6dac2e8c6d60c31b6064820152608401610664565b6001600160a01b03841661158e5760405162461bcd60e51b815260040161066490612e21565b3360005b84518110156116785760008582815181106115af576115af612dbc565b6020026020010151905060008583815181106115cd576115cd612dbc565b602090810291909101810151600084815260fb835260408082206001600160a01b038e16835290935291909120549091508181101561161e5760405162461bcd60e51b815260040161066490612e66565b600083815260fb602090815260408083206001600160a01b038e8116855292528083208585039055908b1682528120805484929061165d908490612c5b565b925050819055505050508061167190612dd2565b9050611592565b50846001600160a01b0316866001600160a01b0316826001600160a01b03167f4a39dc06d4c0dbc64b70af90fd698a233a518aa5d07e595d983b8c0526c8f7fb87876040516116c8929190612eb0565b60405180910390a46116de818787878787611e7e565b505050505050565b6097546001600160a01b031633146108c95760405162461bcd60e51b815260040161066490612d87565b7f4910fdfa16fed3260ed0e7147f7cc6da11a60208b5b9406d12a635614ffd91435460ff1615611743576109cf83611fe9565b826001600160a01b03166352d1902d6040518163ffffffff1660e01b815260040160206040518083038186803b15801561177c57600080fd5b505afa9250505080156117ac575060408051601f3d908101601f191682019092526117a991810190612ed5565b60015b61180f5760405162461bcd60e51b815260206004820152602e60248201527f45524331393637557067726164653a206e657720696d706c656d656e7461746960448201526d6f6e206973206e6f74205555505360901b6064820152608401610664565b600080516020613150833981519152811461187e5760405162461bcd60e51b815260206004820152602960248201527f45524331393637557067726164653a20756e737570706f727465642070726f786044820152681a58589b195555525160ba1b6064820152608401610664565b506109cf838383612085565b60008054610100900460ff16156118d1578160ff1660011480156118ad5750303b155b6118c95760405162461bcd60e51b815260040161066490612eee565b506000919050565b60005460ff8084169116106118f85760405162461bcd60e51b815260040161066490612eee565b506000805460ff191660ff92909216919091179055600190565b600054610100900460ff166119395760405162461bcd60e51b815260040161066490612f3c565b6111256120aa565b600054610100900460ff166119685760405162461bcd60e51b815260040161066490612f3c565b6108c9816120da565b600054610100900460ff166111255760405162461bcd60e51b815260040161066490612f3c565b816001600160a01b0316836001600160a01b03161415611a0c5760405162461bcd60e51b815260206004820152602960248201527f455243313135353a2073657474696e6720617070726f76616c20737461747573604482015268103337b91039b2b63360b91b6064820152608401610664565b6001600160a01b03838116600081815260fc6020908152604080832094871680845294825291829020805460ff191686151590811790915591519182527f17307eab39ab6107e8899845ad3d59bd9653f200f220920489ca2b5937696c31910160405180910390a3505050565b6001600160a01b038416611ad95760405162461bcd60e51b815260206004820152602160248201527f455243313135353a206d696e7420746f20746865207a65726f206164647265736044820152607360f81b6064820152608401610664565b336000611ae58561210a565b90506000611af28561210a565b9050600086815260fb602090815260408083206001600160a01b038b16845290915281208054879290611b26908490612c5b565b909155505060408051878152602081018790526001600160a01b03808a1692600092918716917fc3d58168c5ae7397731d063d5bbf3d657854427343f4c083240f7aacaa2d0f62910160405180910390a4611b8683600089898989612155565b50505050505050565b600082815261012f6020908152604090912082516109cf928401906123a6565b600081118015611bc8575080611bc5308461058b565b10155b611c065760405162461bcd60e51b815260206004820152600f60248201526e496e76616c69642062616c616e636560881b6044820152606401610664565b611c223085848460405180602001604052806000815250611344565b6097546001600160a01b03858116911614611cf85761012d54600083815261013060205260409020600281015460019091015473__$06eb37f3f4181eddff90c3bfb218879e8b$__9263a2f8b71b926001600160a01b03918216929116908690611c8d908790612cae565b6040516001600160e01b031960e087901b1681526001600160a01b0394851660048201529390921660248401526044830152606482015260840160006040518083038186803b158015611cdf57600080fd5b505af4158015611cf3573d6000803e3d6000fd5b505050505b50505050565b6001600160a01b038416611d245760405162461bcd60e51b815260040161066490612e21565b336000611d308561210a565b90506000611d3d8561210a565b9050600086815260fb602090815260408083206001600160a01b038c16845290915290205485811015611d825760405162461bcd60e51b815260040161066490612e66565b600087815260fb602090815260408083206001600160a01b038d8116855292528083208985039055908a16825281208054889290611dc1908490612c5b565b909155505060408051888152602081018890526001600160a01b03808b16928c821692918816917fc3d58168c5ae7397731d063d5bbf3d657854427343f4c083240f7aacaa2d0f62910160405180910390a4611e21848a8a8a8a8a612155565b505050505050505050565b609780546001600160a01b038381166001600160a01b0319831681179093556040519116919082907f8be0079c531659141344cd1fd0a4f28419497f9722a3daafe3b4186f6b6457e090600090a35050565b6001600160a01b0384163b156116de5760405163bc197c8160e01b81526001600160a01b0385169063bc197c8190611ec29089908990889088908890600401612f87565b602060405180830381600087803b158015611edc57600080fd5b505af1925050508015611f0c575060408051601f3d908101601f19168201909252611f0991810190612fe5565b60015b611fb957611f18613002565b806308c379a01415611f525750611f2d61301d565b80611f385750611f54565b8060405162461bcd60e51b81526004016106649190612524565b505b60405162461bcd60e51b815260206004820152603460248201527f455243313135353a207472616e7366657220746f206e6f6e20455243313135356044820152732932b1b2b4bb32b91034b6b83632b6b2b73a32b960611b6064820152608401610664565b6001600160e01b0319811663bc197c8160e01b14611b865760405162461bcd60e51b8152600401610664906130a6565b6001600160a01b0381163b6120565760405162461bcd60e51b815260206004820152602d60248201527f455243313936373a206e657720696d706c656d656e746174696f6e206973206e60448201526c1bdd08184818dbdb9d1c9858dd609a1b6064820152608401610664565b60008051602061315083398151915280546001600160a01b0319166001600160a01b0392909216919091179055565b61208e8361221f565b60008251118061209b5750805b156109cf57611cf8838361225f565b600054610100900460ff166120d15760405162461bcd60e51b815260040161066490612f3c565b61112533611e2c565b600054610100900460ff166121015760405162461bcd60e51b815260040161066490612f3c565b6108c981612353565b6040805160018082528183019092526060916000919060208083019080368337019050509050828160008151811061214457612144612dbc565b602090810291909101015292915050565b6001600160a01b0384163b156116de5760405163f23a6e6160e01b81526001600160a01b0385169063f23a6e619061219990899089908890889088906004016130ee565b602060405180830381600087803b1580156121b357600080fd5b505af19250505080156121e3575060408051601f3d908101601f191682019092526121e091810190612fe5565b60015b6121ef57611f18613002565b6001600160e01b0319811663f23a6e6160e01b14611b865760405162461bcd60e51b8152600401610664906130a6565b61222881611fe9565b6040516001600160a01b038216907fbc7cd75a20ee27fd9adebab32041f755214dbc6bffa90cc0225b39da2e5c2d3b90600090a250565b60606001600160a01b0383163b6122c75760405162461bcd60e51b815260206004820152602660248201527f416464726573733a2064656c65676174652063616c6c20746f206e6f6e2d636f6044820152651b9d1c9858dd60d21b6064820152608401610664565b600080846001600160a01b0316846040516122e29190613133565b600060405180830381855af49150503d806000811461231d576040519150601f19603f3d011682016040523d82523d6000602084013e612322565b606091505b509150915061234a828260405180606001604052806027815260200161317060279139612366565b95945050505050565b8051610e1a9060fd9060208401906123a6565b6060831561237557508161239f565b8251156123855782518084602001fd5b8160405162461bcd60e51b81526004016106649190612524565b9392505050565b8280546123b290612c73565b90600052602060002090601f0160209004810192826123d4576000855561241a565b82601f106123ed57805160ff191683800117855561241a565b8280016001018555821561241a579182015b8281111561241a5782518255916020019190600101906123ff565b5061242692915061242a565b5090565b5b80821115612426576000815560010161242b565b6001600160a01b03811681146108c957600080fd5b6000806040838503121561246757600080fd5b82356124728161243f565b946020939093013593505050565b6001600160e01b0319811681146108c957600080fd5b6000602082840312156124a857600080fd5b813561239f81612480565b6000602082840312156124c557600080fd5b5035919050565b60005b838110156124e75781810151838201526020016124cf565b83811115611cf85750506000910152565b600081518084526125108160208601602086016124cc565b601f01601f19169290920160200192915050565b60208152600061239f60208301846124f8565b6000806040838503121561254a57600080fd5b50508035926020909101359150565b634e487b7160e01b600052604160045260246000fd5b601f8201601f191681016001600160401b038111828210171561259457612594612559565b6040525050565b60006001600160401b038211156125b4576125b4612559565b5060051b60200190565b600082601f8301126125cf57600080fd5b813560206125dc8261259b565b6040516125e9828261256f565b83815260059390931b850182019282810191508684111561260957600080fd5b8286015b84811015612624578035835291830191830161260d565b509695505050505050565b60006001600160401b0383111561264857612648612559565b60405161265f601f8501601f19166020018261256f565b80915083815284848401111561267457600080fd5b83836020830137600060208583010152509392505050565b600082601f83011261269d57600080fd5b61239f8383356020850161262f565b600080600080600060a086880312156126c457600080fd5b85356126cf8161243f565b945060208601356126df8161243f565b935060408601356001600160401b03808211156126fb57600080fd5b61270789838a016125be565b9450606088013591508082111561271d57600080fd5b61272989838a016125be565b9350608088013591508082111561273f57600080fd5b5061274c8882890161268c565b9150509295509295909350565b60006020828403121561276b57600080fd5b813561239f8161243f565b6000806040838503121561278957600080fd5b82356127948161243f565b915060208301356127a48161243f565b809150509250929050565b80151581146108c957600080fd5b600080600080608085870312156127d357600080fd5b84356127de8161243f565b9350602085013592506040850135915060608501356127fc816127af565b939692955090935050565b6000806040838503121561281a57600080fd5b82356001600160401b038082111561283157600080fd5b818501915085601f83011261284557600080fd5b813560206128528261259b565b60405161285f828261256f565b83815260059390931b850182019282810191508984111561287f57600080fd5b948201945b838610156128a65785356128978161243f565b82529482019490820190612884565b965050860135925050808211156128bc57600080fd5b506128c9858286016125be565b9150509250929050565b600081518084526020808501945080840160005b83811015612903578151875295820195908201906001016128e7565b509495945050505050565b60208152600061239f60208301846128d3565b6000806040838503121561293457600080fd5b823561293f8161243f565b915060208301356001600160401b0381111561295a57600080fd5b6128c98582860161268c565b600080600080600060a0868803121561297e57600080fd5b85356129898161243f565b9450602086013593506040860135925060608601356001600160401b038111156129b257600080fd5b8601601f810188136129c357600080fd5b6129d28882356020840161262f565b92505060808601356129e38161243f565b809150509295509295909350565b60008060408385031215612a0457600080fd5b8235612a0f8161243f565b915060208301356127a4816127af565b60008083601f840112612a3157600080fd5b5081356001600160401b03811115612a4857600080fd5b6020830191508360208260051b850101111561074e57600080fd5b60008083601f840112612a7557600080fd5b5081356001600160401b03811115612a8c57600080fd5b60208301915083602082850101111561074e57600080fd5b60008060008060008060008060a0898b031215612ac057600080fd5b8835612acb8161243f565b97506020890135612adb8161243f565b965060408901356001600160401b0380821115612af757600080fd5b612b038c838d01612a1f565b909850965060608b0135915080821115612b1c57600080fd5b612b288c838d01612a1f565b909650945060808b0135915080821115612b4157600080fd5b50612b4e8b828c01612a63565b999c989b5096995094979396929594505050565b60008060008060008060a08789031215612b7b57600080fd5b8635612b868161243f565b95506020870135612b968161243f565b9450604087013593506060870135925060808701356001600160401b03811115612bbf57600080fd5b612bcb89828a01612a63565b979a9699509497509295939492505050565b600080600080600060a08688031215612bf557600080fd5b8535612c008161243f565b94506020860135612c108161243f565b9350604086013592506060860135915060808601356001600160401b03811115612c3957600080fd5b61274c8882890161268c565b634e487b7160e01b600052601160045260246000fd5b60008219821115612c6e57612c6e612c45565b500190565b600181811c90821680612c8757607f821691505b60208210811415612ca857634e487b7160e01b600052602260045260246000fd5b50919050565b6000816000190483118215151615612cc857612cc8612c45565b500290565b600082612cea57634e487b7160e01b600052601260045260246000fd5b500490565b6020808252602c908201527f46756e6374696f6e206d7573742062652063616c6c6564207468726f7567682060408201526b19195b1959d85d1958d85b1b60a21b606082015260800190565b6020808252602c908201527f46756e6374696f6e206d7573742062652063616c6c6564207468726f7567682060408201526b6163746976652070726f787960a01b606082015260800190565b6020808252818101527f4f776e61626c653a2063616c6c6572206973206e6f7420746865206f776e6572604082015260600190565b634e487b7160e01b600052603260045260246000fd5b6000600019821415612de657612de6612c45565b5060010190565b600060208284031215612dff57600080fd5b815161239f816127af565b600082821015612e1c57612e1c612c45565b500390565b60208082526025908201527f455243313135353a207472616e7366657220746f20746865207a65726f206164604082015264647265737360d81b606082015260800190565b6020808252602a908201527f455243313135353a20696e73756666696369656e742062616c616e636520666f60408201526939103a3930b739b332b960b11b606082015260800190565b604081526000612ec360408301856128d3565b828103602084015261234a81856128d3565b600060208284031215612ee757600080fd5b5051919050565b6020808252602e908201527f496e697469616c697a61626c653a20636f6e747261637420697320616c72656160408201526d191e481a5b9a5d1a585b1a5e995960921b606082015260800190565b6020808252602b908201527f496e697469616c697a61626c653a20636f6e7472616374206973206e6f74206960408201526a6e697469616c697a696e6760a81b606082015260800190565b6001600160a01b0386811682528516602082015260a060408201819052600090612fb3908301866128d3565b8281036060840152612fc581866128d3565b90508281036080840152612fd981856124f8565b98975050505050505050565b600060208284031215612ff757600080fd5b815161239f81612480565b600060033d1115610ecf5760046000803e5060005160e01c90565b600060443d101561302b5790565b6040516003193d81016004833e81513d6001600160401b03816024840111818411171561305a57505050505090565b82850191508151818111156130725750505050505090565b843d870101602082850101111561308c5750505050505090565b61309b6020828601018761256f565b509095945050505050565b60208082526028908201527f455243313135353a204552433131353552656365697665722072656a656374656040820152676420746f6b656e7360c01b606082015260800190565b6001600160a01b03868116825285166020820152604081018490526060810183905260a060808201819052600090613128908301846124f8565b979650505050505050565b600082516131458184602087016124cc565b919091019291505056fe360894a13ba1a3210667c828492db98dca3e2076cc3735a920a3ca505d382bbc416464726573733a206c6f772d6c6576656c2064656c65676174652063616c6c206661696c6564a26469706673582212200e64ce05a7512137eeaf42ea6625f7b4d13ac55003ecab56aa83cd56db867e1a64736f6c63430008090033496e697469616c697a61626c653a20636f6e747261637420697320616c726561",
  "linkReferences": {
    "contracts/tokens/TokenRoyaltiesHandler.sol": {
      "TokenRoyaltiesHandler": [
        {
          "length": 20,
          "start": 3343
        },
        {
          "length": 20,
          "start": 7739
        }
      ]
    }
  },
  "deployedLinkReferences": {
    "contracts/tokens/TokenRoyaltiesHandler.sol": {
      "TokenRoyaltiesHandler": [
        {
          "length": 20,
          "start": 2859
        },
        {
          "length": 20,
          "start": 7255
        }
      ]
    }
  }
}